:100000000C946F000C948C000C948C000C94F402F3
:100010000C948C000C948C000C948C000C948C0030
:100020000C948C000C948C000C948C000C948C0020
:100030000C948C000C9499020C948F020C948C00FC
:100040000C948C000C948C000C948C000C948C0000
:100050000C948C000C948C000C948C000C948C00F0
:100060000C948C000C948C00A8008C028C028C02E6
:100070008C028C028C028C028C028C028C028C0210
:100080008C028C028C028C020602160227023702B6
:100090003C02420244025402650275028C028C0248
:1000A0008C028C028C028C028C02B600C900DA0031
:1000B000E400F50002010F011D012A012C013D01A0
:1000C0004F0155015F0169016F017F019001A2019C
:1000D000B001BA01C001CA01D901E301F401112440
:1000E0001FBECFEFD8E0DEBFCDBF11E0A0E0B1E092
:1000F000E4E7F8E002C005900D92AE30B107D9F701
:1001000021E0AEE0B1E001C01D92A031B207E1F7FD
:100110000E9423030C9438040C94000080E090E0CB
:1001200020910B0130910C01821793071CF4000001
:100130000196F6CF0895CF93DF9390E0FC01B0973E
:10014000EB33F10508F0E8C1EC5CFF4F0C943E0383
:100150001BB80E948E001BB80E948E001BB80E9424
:100160008E001BB80E948E001BB8CFC1DFE3DBB945
:100170000E948E00C8E4CBB90E948E00CBB90E94C9
:100180008E00CBB90E948E00CBB90E948E00DBB9E5
:10019000BFC18FE78BB90E948E00C9E4CBB90E9422
:1001A0008E00CBB90E948E008DE28BB90E948E002A
:1001B00082E1AAC18CE18BB90E948E0082E28BB9E8
:1001C0000E948E00C1E441C08FE78BB90E948E006F
:1001D000C1E4CBB90E948E00CBB90E948E0082E2AE
:1001E0008BB90E948E008CE18FC18FE78BB90E9482
:1001F0008E00C9E4CBB90E948E00CBB90E948E005C
:10020000CBB949C08FE78BB90E948E00C8E4CBB947
:100210000E948E00CBB90E948E00CBB92AC08FE716
:100220008BB90E948E0081E48BB90E948E00C7E4D6
:10023000CBB90E948E0084E4BAC08FE78BB90E94CC
:100240008E00C8E0CBB90E948E00CBB90E948E0010
:10025000CBB9C6C0C1E485C082E48BB90E948E00D0
:10026000C1E4CBB90E948E00CBB90E948E008FE70B
:100270008BB90E948E0080E447C18FE78BB90E9442
:100280008E0088E08BB90E948E0084E18BB90E94B9
:100290008E0082E28BB90E948E0081E435C18FE727
:1002A0008BB90E948E00C1E0CDCFCFE7CBB90E94C1
:1002B0008E00D0E2DBB90E948E0080E18DC0CFE7D6
:1002C000CBB90E948E0080E28BB90E948E008CE137
:1002D0006AC0DEE3DBB90E948E00C1E4FBC08FE799
:1002E0008BB90E948E00C4E4CBB90E948E00CBB9BA
:1002F0000E948E00CBB90E948E0088E305C18CE37A
:100300008BB90E948E00C2E4CBB90E948E0086E4B5
:100310008BB90E948E00CBB90E948E008DE3F4C091
:100320008FE78BB90E948E0084E48BB90E948E0007
:1003300086E48BB90E948E0089E28BB90E948E0000
:1003400081E1E2C0C2E2CBB90E948E0081E58BB9A7
:100350000E948E0089E48BB90E948E0085E427C03C
:10036000C0E4CBB90E948E00CBB90E948E008FE70B
:100370008BB96CCF8EE78BB90E948E00C1E0BAC0FA
:10038000CCE7CBB90E948E00D2E0DBB90E948E0090
:1003900081E022C0CFE7CBB90E948E0081E08BB90B
:1003A0000E948E0084E08BB90E948E0082E08BB99F
:1003B00017C0C3E6CBB90E948E00D4E1DBB90E941E
:1003C0008E0088E009C0C0E4CBB90E948E00D0E264
:1003D000DBB90E948E008FE18BB90E948E00DBB9E1
:1003E0000E948E00CBB991C083E48BB90E948E002D
:1003F00085E48BB90E948E0089E48BB90E948E003F
:1004000081E58BB90E948E0081E67EC08FE38BB9B7
:100410000E948E00C1E4CBB90E948E00CBB90E942D
:100420008E00CBB90E948E008EE36EC01BB80E9476
:100430008E0081E18BB90E948E0081E28BB90E940F
:100440008E008FE78BB90E948E0081E05DC08FE443
:100450008BB90E948E00C9E4CBB90E948E00CBB943
:100460000E948E00CBB90E948E0089E74DC0C9E47E
:10047000CBB90E948E003EC088E78BB90E948E00E7
:10048000C8E038C089E701C08FE78BB90E948E00B1
:10049000C9E4CBB90E948E00CBB90E948E00CBB9C3
:1004A0000E948E008FE430C0C0E4CBB90E948E0061
:1004B000CBB90E948E008FE48BB90E948E0080E53C
:1004C0008BB90E948E0080E61FC0DFE7DBB90E9477
:1004D0008E00C9E4CBB90E948E00CBB90E948E0079
:1004E000CBB90E948E00DBB910C089E78BB90E949E
:1004F0008E00C9E4CBB90E948E00CBB90E948E0059
:10050000CBB90E948E008FE78BB90E948E001BB87A
:10051000DF91CF910C948E00DF91CF9108951F92BF
:100520000F920FB60F9211240F900FBE0F901F90D5
:1005300018951F920F920FB60F92112410920F016F
:1005400010920E010F900FBE0F901F9018958FEF15
:100550008AB98EEF84B991E095B9E8E6F0E0808140
:1005600081608083EBE6F0E080818160808383E0BE
:100570008093810090936F0082E080936E00789466
:10058000089581E085B91BB80895E0910E01F091BE
:100590000F01E050FF4F80810E949B0080910E016F
:1005A00090910F010B9721F410920F0110920E0100
:1005B0000895CF93DF93C4E8D0E0888199816AE001
:1005C00070E00E942A0380E090E00E947A030E947B
:1005D000B7030E94440370930C0160930B011982CE
:1005E0001882DF91CF9108951F920F920FB60F924C
:1005F00011242F933F934F935F936F937F938F9328
:100600009F93AF93BF93EF93FF930E94D90282E031
:10061000189B02C085B9FCCF0E94C10210920F0145
:1006200010920E01FF91EF91BF91AF919F918F9129
:100630007F916F915F914F913F912F910F900FBEDE
:100640000F901F9018950E94A7020E94C1020E945D
:10065000C502FBCFAA1BBB1B51E107C0AA1FBB1FD2
:10066000A617B70710F0A61BB70B881F991F5A953E
:10067000A9F780959095BC01CD010895EE0FFF1F5D
:100680000590F491E02D09940E944B036894B111F8
:100690000C94320408950E94FF0388F09F5798F04D
:1006A000B92F9927B751B0F0E1F0660F771F881F77
:1006B000991F1AF0BA95C9F714C0B13091F00E9491
:1006C0003104B1E008950C943104672F782F882706
:1006D000B85F39F0B93FCCF3869577956795B395B8
:1006E000D9F73EF490958095709561957F4F8F4F27
:1006F0009F4F0895E89409C097FB3EF4909580952C
:10070000709561957F4F8F4F9F4F9923A9F0F92FD7
:1007100096E9BB279395F695879577956795B79555
:10072000F111F8CFFAF4BB0F11F460FF1BC06F5F3B
:100730007F4F8F4F9F4F16C0882311F096E911C04D
:10074000772321F09EE8872F762F05C0662371F06E
:1007500096E8862F70E060E02AF09A95660F771F82
:10076000881FDAF7880F9695879597F908950E9464
:10077000190490F09F3748F4911116F00C9432044C
:1007800060E070E080E89FEB089526F41B16611D81
:10079000711D811D0C94CE030C94E903882371F420
:1007A000772321F09850872B762F07C0662311F40A
:1007B00099270DC09051862B70E060E02AF09A9541
:1007C000660F771F881FDAF7880F9695879597F938
:1007D00008959F3F31F0915020F487957795679564
:1007E000B795880F911D9695879597F9089557FDB0
:1007F0009058440F551F59F05F3F71F04795880F8F
:1008000097FB991F61F09F3F79F087950895121625
:1008100013061406551FF2CF4695F1DF08C01616D1
:1008200017061806991FF1CF869571056105089482
:1008300008950E94FF03A0F0BEE7B91788F4BB2714
:100840009F3860F41616B11D672F782F8827985FA0
:10085000F7CF869577956795B11D93959639C8F32F
:100860000895E894BB2766277727CB0197F9089569
:04087000F894FFCF2A
:0E08740048454C4C4F20574F524C44404200D8
:00000001FF
