:100000000C946F000C948C000C948C000C940F01D9
:100010000C948C000C948C000C948C000C948C0030
:100020000C948C000C948C000C948C000C948C0020
:100030000C948C000C948C000C9443010C948C0058
:100040000C948C000C948C000C948C000C948C0000
:100050000C948C000C948C000C948C000C948C00F0
:100060000C948C000C948C00060108010801080116
:100070000801080108010801080108010801080138
:100080000801080108010801E800EB00EE00F1009A
:10009000F400F700FA00FD00000103010801080167
:1000A000080108010801080108019A009D00A0004C
:1000B000A300A600A900AC00AF00B200B500B800D4
:1000C000BB00BE00C100C400C700CA00CD00D00004
:1000D000D300D600D900DC00DF00E200E5001124E7
:1000E0001FBECFEFD8E0DEBFCDBF11E0A0E0B1E092
:1000F000ECEBF3E002C005900D92A63EB107D9F7F4
:1001000021E0A6EEB1E001C01D92AA3EB207E1F7E0
:100110000E94BD010C94DC010C940000482F50E0BB
:10012000FA01B097EB33F10508F072C0EC5CFF4FB9
:100130000C94D60121E030E06BC022E030E068C0D2
:1001400023E030E065C024E030E062C025E030E02C
:100150005FC026E030E05CC027E030E059C028E016
:1001600030E056C029E030E053C02AE030E050C013
:100170002BE030E04DC02CE030E04AC02DE030E014
:1001800047C02EE030E044C02FE030E041C020E125
:1001900030E03EC021E130E03BC022E130E038C039
:1001A00023E130E035C024E130E032C025E130E029
:1001B0002FC026E130E02CC027E130E029C028E143
:1001C00030E026C029E130E023C02AE130E020C041
:1001D0002BE130E01DC02CE130E01AC02DE130E011
:1001E00017C02EE130E014C02FE130E011C020E252
:1001F00030E00EC021E230E00BC022E230E008C067
:1002000023E230E005C024E230E002C020E030E02C
:10021000C901089581E085B918B81BB808951F92E7
:100220000F920FB60F9211242F933F934F935F932A
:100230006F937F938F939F93AF93BF93EF93FF93AE
:100240000E940A018FEF189B02C088B9FCCF109260
:10025000E7011092E9011092E80116BC10928500A6
:1002600010928400FF91EF91BF91AF919F918F9178
:100270007F916F915F914F913F912F910F900FBEA2
:100280000F901F9018951F920F920FB60F92112486
:100290002F933F934F935F936F937F938F939F938E
:1002A000AF93BF93EF93FF93E091E801F091E901E1
:1002B000E050FF4F80810E948E002091E70136E0E0
:1002C000389FF001399FF00D1124E20FF11DE85F16
:1002D000FE4F808186958BB98091E7018F5F809377
:1002E000E7018091E701863058F01092E701809194
:1002F000E8019091E90101969093E9018093E8016A
:100300008091E8019091E90166E070E00E94C201ED
:100310009093E9018093E80116BCFF91EF91BF91A2
:10032000AF919F918F917F916F915F914F913F918D
:100330002F910F900FBE0F901F9018958FEF8AB9D5
:100340009EEF94B987B981E085B9E8E6F0E0808155
:1003500081608083EBE6F0E080818160808385E0CE
:100360008093810084E085BD10926F0082E08093CD
:100370006E0084E187BD789408951092E7010E9491
:100380009E01FFCFAA1BBB1B51E107C0AA1FBB1FC9
:10039000A617B70710F0A61BB70B881F991F5A9511
:1003A000A9F780959095BC01CD010895EE0FFF1F30
:0C03B0000590F491E02D0994F894FFCF23
:1003BC00414148202020FF000000000000007E90FA
:1003CC009090907EFE92925A240038448282820051
:1003DC00FE8282443800FE9292928200FE909090AF
:1003EC008000FE828E888E00FE101010FE0082822D
:1003FC00FE828200848282FE8000FE1028448200ED
:10040C00FE0202020200FE402040FE00FE403804C4
:10041C00FE007C8282827C00FE8888887000788452
:10042C008C847A00FE888C52220044A2928A44006A
:10043C008080FE808000FC020202FC00F8040204B2
:10044C00F800FE020804FE00C6281028C6008040F2
:10045C003E408000868A92A2C2007E8282827C000C
:10046C00002242FE02009E929292F200929292928E
:10047C00FE00F0101010FE00F29292929E00FE927E
:10048C0092929E0080809EA0C000FE929292FE00EE
:06049C00F2929292FE00B4
:00000001FF
