:100000000C946F000C948C000C948C000C944701A1
:100010000C948C000C948C000C948C000C948C0030
:100020000C948C000C948C000C948C000C940A01A1
:100030000C948C000C948C000C948C000C948C0010
:100040000C948C000C948C000C948C000C948C0000
:100050000C948C000C948C000C948C000C948C00F0
:100060000C948C000C948C00060108010801080116
:100070000801080108010801080108010801080138
:100080000801080108010801E800EB00EE00F1009A
:10009000F400F700FA00FD00000103010801080167
:1000A000080108010801080108019A009D00A0004C
:1000B000A300A600A900AC00AF00B200B500B800D4
:1000C000BB00BE00C100C400C700CA00CD00D00004
:1000D000D300D600D900DC00DF00E200E5001124E7
:1000E0001FBECFEFD8E0DEBFCDBF11E0A0E0B1E092
:1000F000ECE3F5E002C005900D92AC3EB107D9F7F4
:1001000021E0ACEEB1E001C01D92A13FB207E1F7E2
:100110000E948F010C949C020C940000482F50E028
:10012000FA01B097EB33F10508F072C0EC5CFF4FB9
:100130000C94B10121E030E06BC022E030E068C0F7
:1001400023E030E065C024E030E062C025E030E02C
:100150005FC026E030E05CC027E030E059C028E016
:1001600030E056C029E030E053C02AE030E050C013
:100170002BE030E04DC02CE030E04AC02DE030E014
:1001800047C02EE030E044C02FE030E041C020E125
:1001900030E03EC021E130E03BC022E130E038C039
:1001A00023E130E035C024E130E032C025E130E029
:1001B0002FC026E130E02CC027E130E029C028E143
:1001C00030E026C029E130E023C02AE130E020C041
:1001D0002BE130E01DC02CE130E01AC02DE130E011
:1001E00017C02EE130E014C02FE130E011C020E252
:1001F00030E00EC021E230E00BC022E230E008C067
:1002000023E230E005C024E230E002C020E030E02C
:10021000C90108951F920F920FB60F9211248F9368
:1002200082E085B98F910F900FBE0F901F901895A7
:100230009FEF9AB98EEF84B921E025B91092EE01B3
:100240001092ED01E8E6F0E0808181608083EBE6CA
:10025000F0E080818160808383E08093810035E0DD
:1002600035BD20936F0080936E0010928500109230
:10027000840016BC97BD82E19AE790938700809333
:1002800086007894089581E085B91BB808951F927F
:100290000F920FB60F9211242F933F934F935F93BA
:1002A0006F937F938F939F93AF93BF93EF93FF933E
:1002B00022E0189B0BC08091ED019091EE01019618
:1002C0009093EE018093ED0125B9F3CF0E94430195
:1002D000FF91EF91BF91AF919F918F917F916F911E
:1002E0005F914F913F912F910F900FBE0F901F90F4
:1002F0001895809184009091850068E671E00E94D5
:100300009D0180E090E00E94E3010E9420020E9493
:10031000B70160930B0170930C0167BD08950E94B3
:1003200018012FE035E58091ED019091EE010397E2
:1003300014F43BB9F8CF2BB9F6CFAA1BBB1B51E184
:1003400007C0AA1FBB1FA617B70710F0A61BB70B45
:10035000881F991F5A95A9F780959095BC01CD01EA
:100360000895EE0FFF1F0590F491E02D0994ACD095
:1003700088F09F5790F0B92F9927B751A0F0D1F08E
:10038000660F771F881F991F1AF0BA95C9F712C018
:10039000B13081F0CAD0B1E00895C7C0672F782F7F
:1003A0008827B85F39F0B93FCCF386957795679584
:1003B000B395D9F73EF490958095709561957F4FF0
:1003C0008F4F9F4F0895E89409C097FB3EF4909596
:1003D0008095709561957F4F8F4F9F4F9923A9F01E
:1003E000F92F96E9BB279395F695879577956795AD
:1003F000B795F111F8CFFAF4BB0F11F460FF1BC0F1
:100400006F5F7F4F8F4F9F4F16C0882311F096E983
:1004100011C0772321F09EE8872F762F05C0662331
:1004200071F096E8862F70E060E02AF09A95660FEA
:10043000771F881FDAF7880F9695879597F90895A3
:100440005DD080F09F3740F491110EF06FC060E0F6
:1004500070E080E89FEB089526F41B16611D711D66
:10046000811D01C01BC0882371F4772321F09850AF
:10047000872B762F07C0662311F499270DC0905162
:10048000862B70E060E02AF09A95660F771F881F30
:10049000DAF7880F9695879597F908959F3F31F081
:1004A000915020F4879577956795B795880F911DA2
:1004B0009695879597F9089557FD9058440F551FC5
:1004C00059F05F3F71F04795880F97FB991F61F0D6
:1004D0009F3F79F087950895121613061406551F4D
:1004E000F2CF4695F1DF08C0161617061806991FB9
:1004F000F1CF86957105610508940895E5DFA0F0B8
:10050000BEE7B91788F4BB279F3860F41616B11DF3
:10051000672F782F8827985FF7CF8695779567950F
:10052000B11D93959639C8F30895E894BB276627C3
:0C0530007727CB0197F90895F894FFCFCE
:10053C0048454C4C4F20574F524C44FF0000000094
:10054C000000007E909090907EFE92925A2400388B
:10055C004482828200FE8282443800FE9292928211
:10056C0000FE9090908000FE828E888E00FE10100F
:10057C001010008282FE828200848282FE8000FE45
:10058C001028448200FE0202020200FE402040FEBF
:10059C0000FE403804FE007C8282827C00FE88884B
:1005AC0088700078848C847A00FE888C52220044F7
:1005BC00A2928A44008080FE808000FC020202FC31
:1005CC0000F8040204F800FE020804FE00C628101D
:1005DC0028C60080403E408000868A92A2C2007EDF
:1005EC008282827C00002242FE02009E929292F253
:1005FC000092929292FE00F0101010FE00F2929275
:10060C00929E00FE9292929E0080809EA0C000FE60
:0C061C00929292FE00F2929292FE000078
:00000001FF
